{
  "contractName": "Voting",
  "abi": [
    {
      "inputs": [
        {
          "internalType": "string[]",
          "name": "candidateNames",
          "type": "string[]"
        }
      ],
      "stateMutability": "nonpayable",
      "type": "constructor"
    },
    {
      "inputs": [
        {
          "internalType": "uint256",
          "name": "",
          "type": "uint256"
        }
      ],
      "name": "candidateList",
      "outputs": [
        {
          "internalType": "string",
          "name": "",
          "type": "string"
        }
      ],
      "stateMutability": "view",
      "type": "function",
      "constant": true
    },
    {
      "inputs": [
        {
          "internalType": "string",
          "name": "",
          "type": "string"
        }
      ],
      "name": "votesReceived",
      "outputs": [
        {
          "internalType": "uint256",
          "name": "",
          "type": "uint256"
        }
      ],
      "stateMutability": "view",
      "type": "function",
      "constant": true
    },
    {
      "inputs": [
        {
          "internalType": "string",
          "name": "candidate",
          "type": "string"
        }
      ],
      "name": "voteForCandidate",
      "outputs": [],
      "stateMutability": "nonpayable",
      "type": "function"
    },
    {
      "inputs": [
        {
          "internalType": "string",
          "name": "candidate",
          "type": "string"
        }
      ],
      "name": "totalVotesFor",
      "outputs": [
        {
          "internalType": "uint256",
          "name": "",
          "type": "uint256"
        }
      ],
      "stateMutability": "view",
      "type": "function",
      "constant": true
    }
  ],
  "bytecode": "0x60806040523480156200001157600080fd5b5060405162000ab838038062000ab88339818101604052810190620000379190620002e0565b80600190805190602001906200004f92919062000057565b505062000485565b828054828255906000526020600020908101928215620000ab579160200282015b82811115620000aa57825182908051906020019062000099929190620000be565b509160200191906001019062000078565b5b509050620000ba91906200014f565b5090565b828054620000cc90620003f1565b90600052602060002090601f016020900481019282620000f057600085556200013c565b82601f106200010b57805160ff19168380011785556200013c565b828001600101855582156200013c579182015b828111156200013b5782518255916020019190600101906200011e565b5b5090506200014b919062000177565b5090565b5b8082111562000173576000818162000169919062000196565b5060010162000150565b5090565b5b808211156200019257600081600090555060010162000178565b5090565b508054620001a490620003f1565b6000825580601f10620001b85750620001d9565b601f016020900490600052602060002090810190620001d8919062000177565b5b50565b6000620001f3620001ed8462000359565b62000325565b9050808382526020820190508260005b858110156200023757815185016200021c8882620002b3565b84526020840193506020830192505060018101905062000203565b5050509392505050565b600062000258620002528462000388565b62000325565b9050828152602081018484840111156200027157600080fd5b6200027e848285620003bb565b509392505050565b600082601f8301126200029857600080fd5b8151620002aa848260208601620001dc565b91505092915050565b600082601f830112620002c557600080fd5b8151620002d784826020860162000241565b91505092915050565b600060208284031215620002f357600080fd5b600082015167ffffffffffffffff8111156200030e57600080fd5b6200031c8482850162000286565b91505092915050565b6000604051905081810181811067ffffffffffffffff821117156200034f576200034e62000456565b5b8060405250919050565b600067ffffffffffffffff82111562000377576200037662000456565b5b602082029050602081019050919050565b600067ffffffffffffffff821115620003a657620003a562000456565b5b601f19601f8301169050602081019050919050565b60005b83811015620003db578082015181840152602081019050620003be565b83811115620003eb576000848401525b50505050565b600060028204905060018216806200040a57607f821691505b6020821081141562000421576200042062000427565b5b50919050565b7f4e487b7100000000000000000000000000000000000000000000000000000000600052602260045260246000fd5b7f4e487b7100000000000000000000000000000000000000000000000000000000600052604160045260246000fd5b61062380620004956000396000f3fe608060405234801561001057600080fd5b506004361061004c5760003560e01c80634a3bf377146100515780638d4b44d914610081578063b13c744b146100b1578063e89927ef146100e1575b600080fd5b61006b600480360381019061006691906102b2565b6100fd565b60405161007891906103ce565b60405180910390f35b61009b600480360381019061009691906102b2565b610124565b6040516100a891906103ce565b60405180910390f35b6100cb60048036038101906100c691906102f3565b610152565b6040516100d891906103ac565b60405180910390f35b6100fb60048036038101906100f691906102b2565b6101fe565b005b6000808260405161010e9190610395565b9081526020016040518091039020549050919050565b6000818051602081018201805184825260208301602085012081835280955050505050506000915090505481565b6001818154811061016257600080fd5b90600052602060002001600091509050805461017d906104bd565b80601f01602080910402602001604051908101604052809291908181526020018280546101a9906104bd565b80156101f65780601f106101cb576101008083540402835291602001916101f6565b820191906000526020600020905b8154815290600101906020018083116101d957829003601f168201915b505050505081565b60008160405161020e9190610395565b9081526020016040518091039020600081548092919061022d906104ef565b919050555050565b60006102486102438461041a565b6103e9565b90508281526020810184848401111561026057600080fd5b61026b84828561047b565b509392505050565b600082601f83011261028457600080fd5b8135610294848260208601610235565b91505092915050565b6000813590506102ac816105d6565b92915050565b6000602082840312156102c457600080fd5b600082013567ffffffffffffffff8111156102de57600080fd5b6102ea84828501610273565b91505092915050565b60006020828403121561030557600080fd5b60006103138482850161029d565b91505092915050565b60006103278261044a565b6103318185610455565b935061034181856020860161048a565b61034a816105c5565b840191505092915050565b60006103608261044a565b61036a8185610466565b935061037a81856020860161048a565b80840191505092915050565b61038f81610471565b82525050565b60006103a18284610355565b915081905092915050565b600060208201905081810360008301526103c6818461031c565b905092915050565b60006020820190506103e36000830184610386565b92915050565b6000604051905081810181811067ffffffffffffffff821117156104105761040f610596565b5b8060405250919050565b600067ffffffffffffffff82111561043557610434610596565b5b601f19601f8301169050602081019050919050565b600081519050919050565b600082825260208201905092915050565b600081905092915050565b6000819050919050565b82818337600083830152505050565b60005b838110156104a857808201518184015260208101905061048d565b838111156104b7576000848401525b50505050565b600060028204905060018216806104d557607f821691505b602082108114156104e9576104e8610567565b5b50919050565b60006104fa82610471565b91507fffffffffffffffffffffffffffffffffffffffffffffffffffffffffffffffff82141561052d5761052c610538565b5b600182019050919050565b7f4e487b7100000000000000000000000000000000000000000000000000000000600052601160045260246000fd5b7f4e487b7100000000000000000000000000000000000000000000000000000000600052602260045260246000fd5b7f4e487b7100000000000000000000000000000000000000000000000000000000600052604160045260246000fd5b6000601f19601f8301169050919050565b6105df81610471565b81146105ea57600080fd5b5056fea2646970667358221220ac2e18269083ddb78a732c0535700f297c541214e3072673e22c3024226f2cc564736f6c63430008000033",
  "immutableReferences": {},
  "source": "// SPDX-License-Identifier: MIT\r\n\r\npragma solidity ^0.8.0;\r\ncontract Voting {\r\n    // Mapping to store votes for each candidate\r\n    mapping(string => uint256) public votesReceived;\r\n    \r\n    // Array to store candidate names\r\n    string[] public candidateList;\r\n\r\n    // Constructor to initialize candidates\r\n    constructor(string[] memory candidateNames) {\r\n        candidateList = candidateNames;\r\n    }\r\n\r\n    // Function to vote for a candidate\r\n    function voteForCandidate(string memory candidate) public {\r\n        votesReceived[candidate]++;\r\n    }\r\n\r\n    // Function to get the number of votes for a candidate\r\n    function totalVotesFor(string memory candidate) public view returns (uint256) {\r\n        return votesReceived[candidate];\r\n    }\r\n}\r\n",
  "sourcePath": "D:\\project\\contracts\\Voting.sol",
  "compiler": {
    "name": "solc",
    "version": "0.8.0+commit.c7dfd78e.Emscripten.clang"
  },
  "schemaVersion": "3.4.16",
  "updatedAt": "2024-12-10T20:03:25.349Z",
  "networkType": "ethereum",
  "devdoc": {
    "kind": "dev",
    "methods": {},
    "version": 1
  },
  "userdoc": {
    "kind": "user",
    "methods": {},
    "version": 1
  }
}